{
  "_format": "hh-sol-artifact-1",
  "contractName": "ChainBudgetTreasury",
  "sourceName": "contracts/ChainBudgetTreasury.sol",
  "abi": [
    {
      "inputs": [
        {
          "internalType": "address[]",
          "name": "_initialApprovers",
          "type": "address[]"
        },
        {
          "internalType": "uint256",
          "name": "_requiredApprovals",
          "type": "uint256"
        }
      ],
      "stateMutability": "nonpayable",
      "type": "constructor"
    },
    {
      "inputs": [],
      "name": "ECDSAInvalidSignature",
      "type": "error"
    },
    {
      "inputs": [
        {
          "internalType": "uint256",
          "name": "length",
          "type": "uint256"
        }
      ],
      "name": "ECDSAInvalidSignatureLength",
      "type": "error"
    },
    {
      "inputs": [
        {
          "internalType": "bytes32",
          "name": "s",
          "type": "bytes32"
        }
      ],
      "name": "ECDSAInvalidSignatureS",
      "type": "error"
    },
    {
      "inputs": [],
      "name": "InvalidShortString",
      "type": "error"
    },
    {
      "inputs": [
        {
          "internalType": "string",
          "name": "str",
          "type": "string"
        }
      ],
      "name": "StringTooLong",
      "type": "error"
    },
    {
      "anonymous": false,
      "inputs": [
        {
          "indexed": true,
          "internalType": "address",
          "name": "approver",
          "type": "address"
        }
      ],
      "name": "ApproverAdded",
      "type": "event"
    },
    {
      "anonymous": false,
      "inputs": [
        {
          "indexed": true,
          "internalType": "address",
          "name": "approver",
          "type": "address"
        }
      ],
      "name": "ApproverRemoved",
      "type": "event"
    },
    {
      "anonymous": false,
      "inputs": [],
      "name": "EIP712DomainChanged",
      "type": "event"
    },
    {
      "anonymous": false,
      "inputs": [
        {
          "indexed": false,
          "internalType": "uint256",
          "name": "newRequired",
          "type": "uint256"
        }
      ],
      "name": "RequiredApprovalsUpdated",
      "type": "event"
    },
    {
      "anonymous": false,
      "inputs": [
        {
          "indexed": true,
          "internalType": "string",
          "name": "txId",
          "type": "string"
        },
        {
          "indexed": true,
          "internalType": "address",
          "name": "to",
          "type": "address"
        },
        {
          "indexed": false,
          "internalType": "uint256",
          "name": "amount",
          "type": "uint256"
        }
      ],
      "name": "TransactionExecuted",
      "type": "event"
    },
    {
      "anonymous": false,
      "inputs": [
        {
          "indexed": true,
          "internalType": "address",
          "name": "sender",
          "type": "address"
        },
        {
          "indexed": false,
          "internalType": "uint256",
          "name": "amount",
          "type": "uint256"
        }
      ],
      "name": "VaultDeposited",
      "type": "event"
    },
    {
      "inputs": [
        {
          "internalType": "address",
          "name": "approver",
          "type": "address"
        }
      ],
      "name": "addApprover",
      "outputs": [],
      "stateMutability": "nonpayable",
      "type": "function"
    },
    {
      "inputs": [
        {
          "internalType": "uint256",
          "name": "",
          "type": "uint256"
        }
      ],
      "name": "approvers",
      "outputs": [
        {
          "internalType": "address",
          "name": "",
          "type": "address"
        }
      ],
      "stateMutability": "view",
      "type": "function"
    },
    {
      "inputs": [],
      "name": "eip712Domain",
      "outputs": [
        {
          "internalType": "bytes1",
          "name": "fields",
          "type": "bytes1"
        },
        {
          "internalType": "string",
          "name": "name",
          "type": "string"
        },
        {
          "internalType": "string",
          "name": "version",
          "type": "string"
        },
        {
          "internalType": "uint256",
          "name": "chainId",
          "type": "uint256"
        },
        {
          "internalType": "address",
          "name": "verifyingContract",
          "type": "address"
        },
        {
          "internalType": "bytes32",
          "name": "salt",
          "type": "bytes32"
        },
        {
          "internalType": "uint256[]",
          "name": "extensions",
          "type": "uint256[]"
        }
      ],
      "stateMutability": "view",
      "type": "function"
    },
    {
      "inputs": [
        {
          "internalType": "string",
          "name": "action",
          "type": "string"
        },
        {
          "internalType": "string",
          "name": "txId",
          "type": "string"
        },
        {
          "internalType": "string",
          "name": "amountStr",
          "type": "string"
        },
        {
          "internalType": "uint256",
          "name": "amountWei",
          "type": "uint256"
        },
        {
          "internalType": "string",
          "name": "description",
          "type": "string"
        },
        {
          "internalType": "address payable",
          "name": "to",
          "type": "address"
        },
        {
          "internalType": "bytes[]",
          "name": "signatures",
          "type": "bytes[]"
        }
      ],
      "name": "executeWithSignatures",
      "outputs": [],
      "stateMutability": "nonpayable",
      "type": "function"
    },
    {
      "inputs": [
        {
          "internalType": "string",
          "name": "",
          "type": "string"
        }
      ],
      "name": "executedTransactions",
      "outputs": [
        {
          "internalType": "bool",
          "name": "",
          "type": "bool"
        }
      ],
      "stateMutability": "view",
      "type": "function"
    },
    {
      "inputs": [],
      "name": "getApprovers",
      "outputs": [
        {
          "internalType": "address[]",
          "name": "",
          "type": "address[]"
        }
      ],
      "stateMutability": "view",
      "type": "function"
    },
    {
      "inputs": [],
      "name": "getVaultBalance",
      "outputs": [
        {
          "internalType": "uint256",
          "name": "",
          "type": "uint256"
        }
      ],
      "stateMutability": "view",
      "type": "function"
    },
    {
      "inputs": [
        {
          "internalType": "address",
          "name": "",
          "type": "address"
        }
      ],
      "name": "isApprover",
      "outputs": [
        {
          "internalType": "bool",
          "name": "",
          "type": "bool"
        }
      ],
      "stateMutability": "view",
      "type": "function"
    },
    {
      "inputs": [],
      "name": "owner",
      "outputs": [
        {
          "internalType": "address",
          "name": "",
          "type": "address"
        }
      ],
      "stateMutability": "view",
      "type": "function"
    },
    {
      "inputs": [
        {
          "internalType": "address",
          "name": "approver",
          "type": "address"
        }
      ],
      "name": "removeApprover",
      "outputs": [],
      "stateMutability": "nonpayable",
      "type": "function"
    },
    {
      "inputs": [],
      "name": "requiredApprovals",
      "outputs": [
        {
          "internalType": "uint256",
          "name": "",
          "type": "uint256"
        }
      ],
      "stateMutability": "view",
      "type": "function"
    },
    {
      "inputs": [
        {
          "internalType": "uint256",
          "name": "_required",
          "type": "uint256"
        }
      ],
      "name": "setRequiredApprovals",
      "outputs": [],
      "stateMutability": "nonpayable",
      "type": "function"
    },
    {
      "stateMutability": "payable",
      "type": "receive"
    }
  ],
  "bytecode": "0x61016060405234801562000011575f80fd5b5060405162001e4b38038062001e4b833981016040819052620000349162000432565b604080518082018252600b81526a10da185a5b909d5919d95d60aa1b602080830191909152825180840190935260018352603160f81b90830152906200007b825f6200023b565b610120526200008c8160016200023b565b61014052815160208084019190912060e052815190820120610100524660a0526200011960e05161010051604080517f8b73c3c69bb8fe3d512ecc4cf759cc79239f7b179b0ffacaa9a75d522b39400f60208201529081019290925260608201524660808201523060a08201525f9060c00160405160208183030381529060405280519060200120905090565b60805250503060c05280620001865760405162461bcd60e51b815260206004820152602860248201527f54726561737572793a20726571756972656420617070726f76616c73206d7573604482015267074206265203e20360c41b60648201526084015b60405180910390fd5b8082511015620001d95760405162461bcd60e51b815260206004820152601e60248201527f54726561737572793a206e6f7420656e6f75676820617070726f76657273000060448201526064016200017d565b600280546001600160a01b0319163317905560038190555f5b825181101562000232576200022983828151811062000215576200021562000507565b60200260200101516200027360201b60201c565b600101620001f2565b505050620006e3565b5f6020835110156200025a576200025283620003c0565b90506200026d565b81620002678482620005a5565b5060ff90505b92915050565b6001600160a01b038116620002cb5760405162461bcd60e51b815260206004820152601660248201527f54726561737572793a207a65726f20616464726573730000000000000000000060448201526064016200017d565b6001600160a01b0381165f9081526004602052604090205460ff1615620003355760405162461bcd60e51b815260206004820152601d60248201527f54726561737572793a20616c726561647920616e20617070726f76657200000060448201526064016200017d565b6001600160a01b0381165f81815260046020526040808220805460ff1916600190811790915560058054918201815583527f036b6384b5eca791c62761152d0c79bb0604c104a5fb6f4eb0703f3154bb3db00180546001600160a01b03191684179055517f835bddf1ceee4956e4329af9edf018523c1191238187a597453f6020bcadb0429190a250565b5f80829050601f81511115620003ed578260405163305a27a960e01b81526004016200017d919062000671565b8051620003fa82620006bf565b179392505050565b634e487b7160e01b5f52604160045260245ffd5b80516001600160a01b03811681146200042d575f80fd5b919050565b5f806040838503121562000444575f80fd5b82516001600160401b03808211156200045b575f80fd5b818501915085601f8301126200046f575f80fd5b815160208282111562000486576200048662000402565b8160051b604051601f19603f83011681018181108682111715620004ae57620004ae62000402565b604052928352818301935084810182019289841115620004cc575f80fd5b948201945b83861015620004f557620004e58662000416565b85529482019493820193620004d1565b97909101519698969750505050505050565b634e487b7160e01b5f52603260045260245ffd5b600181811c908216806200053057607f821691505b6020821081036200054f57634e487b7160e01b5f52602260045260245ffd5b50919050565b601f821115620005a057805f5260205f20601f840160051c810160208510156200057c5750805b601f840160051c820191505b818110156200059d575f815560010162000588565b50505b505050565b81516001600160401b03811115620005c157620005c162000402565b620005d981620005d284546200051b565b8462000555565b602080601f8311600181146200060f575f8415620005f75750858301515b5f19600386901b1c1916600185901b17855562000669565b5f85815260208120601f198616915b828110156200063f578886015182559484019460019091019084016200061e565b50858210156200065d57878501515f19600388901b60f8161c191681555b505060018460011b0185555b505050505050565b5f602080835283518060208501525f5b818110156200069f5785810183015185820160400152820162000681565b505f604082860101526040601f19601f8301168501019250505092915050565b805160208083015191908110156200054f575f1960209190910360031b1b16919050565b60805160a05160c05160e051610100516101205161014051611716620007355f395f610c5301525f610c2201525f610e9401525f610e6c01525f610dc701525f610df101525f610e1b01526117165ff3fe6080604052600436106100a8575f3560e01c806384b0196e1161006257806384b0196e146101e55780638da5cb5b1461020c57806399c1aadc14610243578063b646c19414610266578063d3650fb814610285578063ed12e8ef146102a4575f80fd5b806312e31593146100e8578063222a242e146101095780634085c404146101285780636cb3e8ef146101775780636cf4c88f146101985780636d218e48146101b7575f80fd5b366100e45760405134815233907f4ff5a31295b3d784c7d51c3dd0425de7a6fdb551124f4d4b729fbb007bb007949060200160405180910390a2005b5f80fd5b3480156100f3575f80fd5b50610107610102366004611268565b6102b6565b005b348015610114575f80fd5b50610107610123366004611386565b6107e7565b348015610133575f80fd5b506101626101423660046113b1565b805160208183018101805160068252928201919093012091525460ff1681565b60405190151581526020015b60405180910390f35b348015610182575f80fd5b5061018b6108e5565b60405161016e919061145c565b3480156101a3575f80fd5b506101076101b23660046114a8565b610945565b3480156101c2575f80fd5b506101626101d13660046114a8565b60046020525f908152604090205460ff1681565b3480156101f0575f80fd5b506101f9610b21565b60405161016e979695949392919061150d565b348015610217575f80fd5b5060025461022b906001600160a01b031681565b6040516001600160a01b03909116815260200161016e565b34801561024e575f80fd5b5061025860035481565b60405190815260200161016e565b348015610271575f80fd5b506101076102803660046114a8565b610b63565b348015610290575f80fd5b5061022b61029f366004611386565b610b99565b3480156102af575f80fd5b5047610258565b60068a8a6040516102c89291906115a4565b9081526040519081900360200190205460ff161561033c5760405162461bcd60e51b815260206004820152602660248201527f54726561737572793a205472616e73616374696f6e20616c72656164792065786044820152651958dd5d195960d21b60648201526084015b60405180910390fd5b60035481101561039f5760405162461bcd60e51b815260206004820152602860248201527f54726561737572793a204e6f7420656e6f756768207369676e617475726573206044820152671c1c9bdd9a59195960c21b6064820152608401610333565b854710156103fb5760405162461bcd60e51b8152602060048201526024808201527f54726561737572793a20496e73756666696369656e74207661756c742062616c604482015263616e636560e01b6064820152608401610333565b5f7f04ac23703182ab31e1fe59729703cc581b618042da16b6a390cec219f24812458d8d60405161042d9291906115a4565b60405180910390208c8c6040516104459291906115a4565b60405180910390208b8b60405161045d9291906115a4565b604051809103902089896040516104759291906115a4565b6040805191829003822060208301969096528101939093526060830191909152608082015260a081019190915260c0016040516020818303038152906040528051906020012090505f6104c782610bc1565b90505f8367ffffffffffffffff8111156104e3576104e361139d565b60405190808252806020026020018201604052801561050c578160200160208202803683370190505b5090505f805b85811015610637575f61057c85898985818110610531576105316115b3565b905060200281019061054391906115c7565b8080601f0160208091040260200160405190810160405280939291908181526020018383808284375f92019190915250610bf392505050565b6001600160a01b0381165f9081526004602052604090205490915060ff161561062e575f805b848110156105ed57826001600160a01b03168682815181106105c6576105c66115b3565b60200260200101516001600160a01b0316036105e557600191506105ed565b6001016105a2565b508061062c5781858581518110610606576106066115b3565b6001600160a01b0390921660209283029190910190910152836106288161161e565b9450505b505b50600101610512565b506003548110156106b05760405162461bcd60e51b815260206004820152603b60248201527f54726561737572793a204e6f7420656e6f7567682076616c696420756e69717560448201527f65207369676e6174757265732066726f6d20617070726f7665727300000000006064820152608401610333565b600160068f8f6040516106c49291906115a4565b908152604051908190036020018120805492151560ff19909316929092179091555f906001600160a01b038916908c908381818185875af1925050503d805f811461072a576040519150601f19603f3d011682016040523d82523d5f602084013e61072f565b606091505b50509050806107805760405162461bcd60e51b815260206004820152601f60248201527f54726561737572793a204d41544943207472616e73666572206661696c6564006044820152606401610333565b876001600160a01b03168f8f60405161079a9291906115a4565b6040519081900381208d8252907f60349d940eb969ccbf4d4151d89ecbf30efcefc4c002108d8530c6e0bcefcce09060200160405180910390a35050505050505050505050505050505050565b6002546001600160a01b031633146108115760405162461bcd60e51b815260040161033390611636565b5f81116108585760405162461bcd60e51b8152602060048201526015602482015274054726561737572793a206d757374206265203e203605c1b6044820152606401610333565b6005548111156108aa5760405162461bcd60e51b815260206004820152601e60248201527f54726561737572793a206e6f7420656e6f75676820617070726f7665727300006044820152606401610333565b60038190556040518181527fdb445dd03a560dac1b5553e3d3a8d6396138df6ab80174d52bfb898a57f429369060200160405180910390a150565b6060600580548060200260200160405190810160405280929190818152602001828054801561093b57602002820191905f5260205f20905b81546001600160a01b0316815260019091019060200180831161091d575b5050505050905090565b6002546001600160a01b0316331461096f5760405162461bcd60e51b815260040161033390611636565b6001600160a01b0381165f9081526004602052604090205460ff166109d65760405162461bcd60e51b815260206004820152601960248201527f54726561737572793a206e6f7420616e20617070726f766572000000000000006044820152606401610333565b6001600160a01b0381165f908152600460205260408120805460ff191690555b600554811015610aea57816001600160a01b031660058281548110610a1d57610a1d6115b3565b5f918252602090912001546001600160a01b031603610ae25760058054610a469060019061166d565b81548110610a5657610a566115b3565b5f91825260209091200154600580546001600160a01b039092169183908110610a8157610a816115b3565b905f5260205f20015f6101000a8154816001600160a01b0302191690836001600160a01b031602179055506005805480610abd57610abd611680565b5f8281526020902081015f1990810180546001600160a01b0319169055019055610aea565b6001016109f6565b506040516001600160a01b038216907fc6e35658c76ecdde40a54f31a91fb7c8615e9893cc0885584b27bb3433270d46905f90a250565b5f6060805f805f6060610b32610c1b565b610b3a610c4c565b604080515f80825260208201909252600f60f81b9b939a50919850469750309650945092509050565b6002546001600160a01b03163314610b8d5760405162461bcd60e51b815260040161033390611636565b610b9681610c79565b50565b60058181548110610ba8575f80fd5b5f918252602090912001546001600160a01b0316905081565b5f610bed610bcd610dbb565b8360405161190160f01b8152600281019290925260228201526042902090565b92915050565b5f805f80610c018686610ee4565b925092509250610c118282610f2d565b5090949350505050565b6060610c477f00000000000000000000000000000000000000000000000000000000000000005f610fe9565b905090565b6060610c477f00000000000000000000000000000000000000000000000000000000000000006001610fe9565b6001600160a01b038116610cc85760405162461bcd60e51b815260206004820152601660248201527554726561737572793a207a65726f206164647265737360501b6044820152606401610333565b6001600160a01b0381165f9081526004602052604090205460ff1615610d305760405162461bcd60e51b815260206004820152601d60248201527f54726561737572793a20616c726561647920616e20617070726f7665720000006044820152606401610333565b6001600160a01b0381165f81815260046020526040808220805460ff1916600190811790915560058054918201815583527f036b6384b5eca791c62761152d0c79bb0604c104a5fb6f4eb0703f3154bb3db00180546001600160a01b03191684179055517f835bddf1ceee4956e4329af9edf018523c1191238187a597453f6020bcadb0429190a250565b5f306001600160a01b037f000000000000000000000000000000000000000000000000000000000000000016148015610e1357507f000000000000000000000000000000000000000000000000000000000000000046145b15610e3d57507f000000000000000000000000000000000000000000000000000000000000000090565b610c47604080517f8b73c3c69bb8fe3d512ecc4cf759cc79239f7b179b0ffacaa9a75d522b39400f60208201527f0000000000000000000000000000000000000000000000000000000000000000918101919091527f000000000000000000000000000000000000000000000000000000000000000060608201524660808201523060a08201525f9060c00160405160208183030381529060405280519060200120905090565b5f805f8351604103610f1b576020840151604085015160608601515f1a610f0d88828585611092565b955095509550505050610f26565b505081515f91506002905b9250925092565b5f826003811115610f4057610f40611694565b03610f49575050565b6001826003811115610f5d57610f5d611694565b03610f7b5760405163f645eedf60e01b815260040160405180910390fd5b6002826003811115610f8f57610f8f611694565b03610fb05760405163fce698f760e01b815260048101829052602401610333565b6003826003811115610fc457610fc4611694565b03610fe5576040516335e2f38360e21b815260048101829052602401610333565b5050565b606060ff831461100357610ffc8361115a565b9050610bed565b81805461100f906116a8565b80601f016020809104026020016040519081016040528092919081815260200182805461103b906116a8565b80156110865780601f1061105d57610100808354040283529160200191611086565b820191905f5260205f20905b81548152906001019060200180831161106957829003601f168201915b50505050509050610bed565b5f80807f7fffffffffffffffffffffffffffffff5d576e7357a4501ddfe92f46681b20a08411156110cb57505f91506003905082611150565b604080515f808252602082018084528a905260ff891692820192909252606081018790526080810186905260019060a0016020604051602081039080840390855afa15801561111c573d5f803e3d5ffd5b5050604051601f1901519150506001600160a01b03811661114757505f925060019150829050611150565b92505f91508190505b9450945094915050565b60605f61116683611197565b6040805160208082528183019092529192505f91906020820181803683375050509182525060208101929092525090565b5f60ff8216601f811115610bed57604051632cd44ac360e21b815260040160405180910390fd5b5f8083601f8401126111ce575f80fd5b50813567ffffffffffffffff8111156111e5575f80fd5b6020830191508360208285010111156111fc575f80fd5b9250929050565b6001600160a01b0381168114610b96575f80fd5b803561122281611203565b919050565b5f8083601f840112611237575f80fd5b50813567ffffffffffffffff81111561124e575f80fd5b6020830191508360208260051b85010111156111fc575f80fd5b5f805f805f805f805f805f8060e08d8f031215611283575f80fd5b67ffffffffffffffff8d351115611298575f80fd5b6112a58e8e358f016111be565b909c509a5067ffffffffffffffff60208e013511156112c2575f80fd5b6112d28e60208f01358f016111be565b909a50985067ffffffffffffffff60408e013511156112ef575f80fd5b6112ff8e60408f01358f016111be565b909850965060608d0135955067ffffffffffffffff60808e01351115611323575f80fd5b6113338e60808f01358f016111be565b909550935061134460a08e01611217565b925067ffffffffffffffff60c08e0135111561135e575f80fd5b61136e8e60c08f01358f01611227565b81935080925050509295989b509295989b509295989b565b5f60208284031215611396575f80fd5b5035919050565b634e487b7160e01b5f52604160045260245ffd5b5f602082840312156113c1575f80fd5b813567ffffffffffffffff808211156113d8575f80fd5b818401915084601f8301126113eb575f80fd5b8135818111156113fd576113fd61139d565b604051601f8201601f19908116603f011681019083821181831017156114255761142561139d565b8160405282815287602084870101111561143d575f80fd5b826020860160208301375f928101602001929092525095945050505050565b602080825282518282018190525f9190848201906040850190845b8181101561149c5783516001600160a01b031683529284019291840191600101611477565b50909695505050505050565b5f602082840312156114b8575f80fd5b81356114c381611203565b9392505050565b5f81518084525f5b818110156114ee576020818501810151868301820152016114d2565b505f602082860101526020601f19601f83011685010191505092915050565b60ff60f81b881681525f602060e0602084015261152d60e084018a6114ca565b838103604085015261153f818a6114ca565b606085018990526001600160a01b038816608086015260a0850187905284810360c0860152855180825260208088019350909101905f5b8181101561159257835183529284019291840191600101611576565b50909c9b505050505050505050505050565b818382375f9101908152919050565b634e487b7160e01b5f52603260045260245ffd5b5f808335601e198436030181126115dc575f80fd5b83018035915067ffffffffffffffff8211156115f6575f80fd5b6020019150368190038213156111fc575f80fd5b634e487b7160e01b5f52601160045260245ffd5b5f6001820161162f5761162f61160a565b5060010190565b6020808252601d908201527f54726561737572793a2063616c6c6572206973206e6f74206f776e6572000000604082015260600190565b81810381811115610bed57610bed61160a565b634e487b7160e01b5f52603160045260245ffd5b634e487b7160e01b5f52602160045260245ffd5b600181811c908216806116bc57607f821691505b6020821081036116da57634e487b7160e01b5f52602260045260245ffd5b5091905056fea2646970667358221220bc9f8ed6a71ca352bab229053f2d7980f66460398fb4f57752440d2abf64df3364736f6c63430008180033",
  "linkReferences": {},
  "deployedLinkReferences": {}
}