{
  "_format": "hh-sol-artifact-1",
  "contractName": "ChainBudget",
  "sourceName": "contracts/ChainBudget.sol",
  "abi": [
    {
      "inputs": [
        {
          "internalType": "address[]",
          "name": "_initialApprovers",
          "type": "address[]"
        },
        {
          "internalType": "uint256",
          "name": "_requiredApprovals",
          "type": "uint256"
        }
      ],
      "stateMutability": "nonpayable",
      "type": "constructor"
    },
    {
      "anonymous": false,
      "inputs": [
        {
          "indexed": true,
          "internalType": "uint256",
          "name": "txId",
          "type": "uint256"
        },
        {
          "indexed": true,
          "internalType": "address",
          "name": "approver",
          "type": "address"
        },
        {
          "indexed": false,
          "internalType": "uint256",
          "name": "approvalCount",
          "type": "uint256"
        }
      ],
      "name": "ApprovalSubmitted",
      "type": "event"
    },
    {
      "anonymous": false,
      "inputs": [
        {
          "indexed": true,
          "internalType": "address",
          "name": "approver",
          "type": "address"
        }
      ],
      "name": "ApproverAdded",
      "type": "event"
    },
    {
      "anonymous": false,
      "inputs": [
        {
          "indexed": true,
          "internalType": "address",
          "name": "approver",
          "type": "address"
        }
      ],
      "name": "ApproverRemoved",
      "type": "event"
    },
    {
      "anonymous": false,
      "inputs": [
        {
          "indexed": true,
          "internalType": "uint256",
          "name": "txId",
          "type": "uint256"
        },
        {
          "indexed": false,
          "internalType": "address",
          "name": "approver",
          "type": "address"
        },
        {
          "indexed": false,
          "internalType": "bool",
          "name": "isPayer",
          "type": "bool"
        }
      ],
      "name": "EscrowApproved",
      "type": "event"
    },
    {
      "anonymous": false,
      "inputs": [
        {
          "indexed": true,
          "internalType": "uint256",
          "name": "txId",
          "type": "uint256"
        },
        {
          "indexed": false,
          "internalType": "uint256",
          "name": "amount",
          "type": "uint256"
        }
      ],
      "name": "EscrowFunded",
      "type": "event"
    },
    {
      "anonymous": false,
      "inputs": [
        {
          "indexed": true,
          "internalType": "uint256",
          "name": "txId",
          "type": "uint256"
        },
        {
          "indexed": true,
          "internalType": "address",
          "name": "to",
          "type": "address"
        },
        {
          "indexed": false,
          "internalType": "uint256",
          "name": "amount",
          "type": "uint256"
        }
      ],
      "name": "EscrowReleased",
      "type": "event"
    },
    {
      "anonymous": false,
      "inputs": [
        {
          "indexed": false,
          "internalType": "uint256",
          "name": "newRequired",
          "type": "uint256"
        }
      ],
      "name": "RequiredApprovalsUpdated",
      "type": "event"
    },
    {
      "anonymous": false,
      "inputs": [
        {
          "indexed": true,
          "internalType": "uint256",
          "name": "txId",
          "type": "uint256"
        }
      ],
      "name": "TransactionApproved",
      "type": "event"
    },
    {
      "anonymous": false,
      "inputs": [
        {
          "indexed": true,
          "internalType": "uint256",
          "name": "txId",
          "type": "uint256"
        },
        {
          "indexed": true,
          "internalType": "address",
          "name": "to",
          "type": "address"
        },
        {
          "indexed": false,
          "internalType": "uint256",
          "name": "amount",
          "type": "uint256"
        }
      ],
      "name": "TransactionExecuted",
      "type": "event"
    },
    {
      "anonymous": false,
      "inputs": [
        {
          "indexed": true,
          "internalType": "uint256",
          "name": "txId",
          "type": "uint256"
        },
        {
          "indexed": false,
          "internalType": "bytes32",
          "name": "dataHash",
          "type": "bytes32"
        },
        {
          "indexed": false,
          "internalType": "uint256",
          "name": "amount",
          "type": "uint256"
        },
        {
          "indexed": false,
          "internalType": "address",
          "name": "to",
          "type": "address"
        },
        {
          "indexed": false,
          "internalType": "bool",
          "name": "isHighValue",
          "type": "bool"
        },
        {
          "indexed": false,
          "internalType": "bool",
          "name": "isEscrow",
          "type": "bool"
        },
        {
          "indexed": false,
          "internalType": "address",
          "name": "submittedBy",
          "type": "address"
        }
      ],
      "name": "TransactionRecorded",
      "type": "event"
    },
    {
      "anonymous": false,
      "inputs": [
        {
          "indexed": true,
          "internalType": "address",
          "name": "sender",
          "type": "address"
        },
        {
          "indexed": false,
          "internalType": "uint256",
          "name": "amount",
          "type": "uint256"
        }
      ],
      "name": "VaultDeposited",
      "type": "event"
    },
    {
      "inputs": [
        {
          "internalType": "address",
          "name": "approver",
          "type": "address"
        }
      ],
      "name": "addApprover",
      "outputs": [],
      "stateMutability": "nonpayable",
      "type": "function"
    },
    {
      "inputs": [
        {
          "internalType": "uint256",
          "name": "",
          "type": "uint256"
        }
      ],
      "name": "approvers",
      "outputs": [
        {
          "internalType": "address",
          "name": "",
          "type": "address"
        }
      ],
      "stateMutability": "view",
      "type": "function"
    },
    {
      "inputs": [
        {
          "internalType": "uint256",
          "name": "",
          "type": "uint256"
        }
      ],
      "name": "escrows",
      "outputs": [
        {
          "internalType": "bool",
          "name": "isFunded",
          "type": "bool"
        },
        {
          "internalType": "bool",
          "name": "payerApproved",
          "type": "bool"
        },
        {
          "internalType": "bool",
          "name": "payeeApproved",
          "type": "bool"
        },
        {
          "internalType": "bool",
          "name": "isReleased",
          "type": "bool"
        }
      ],
      "stateMutability": "view",
      "type": "function"
    },
    {
      "inputs": [
        {
          "internalType": "uint256",
          "name": "txId",
          "type": "uint256"
        }
      ],
      "name": "executeTransaction",
      "outputs": [],
      "stateMutability": "nonpayable",
      "type": "function"
    },
    {
      "inputs": [
        {
          "internalType": "uint256",
          "name": "txId",
          "type": "uint256"
        }
      ],
      "name": "getApprovalCount",
      "outputs": [
        {
          "internalType": "uint256",
          "name": "",
          "type": "uint256"
        }
      ],
      "stateMutability": "view",
      "type": "function"
    },
    {
      "inputs": [],
      "name": "getApprovers",
      "outputs": [
        {
          "internalType": "address[]",
          "name": "",
          "type": "address[]"
        }
      ],
      "stateMutability": "view",
      "type": "function"
    },
    {
      "inputs": [
        {
          "internalType": "uint256",
          "name": "txId",
          "type": "uint256"
        }
      ],
      "name": "getTransaction",
      "outputs": [
        {
          "components": [
            {
              "internalType": "uint256",
              "name": "id",
              "type": "uint256"
            },
            {
              "internalType": "bytes32",
              "name": "dataHash",
              "type": "bytes32"
            },
            {
              "internalType": "uint256",
              "name": "amount",
              "type": "uint256"
            },
            {
              "internalType": "address payable",
              "name": "to",
              "type": "address"
            },
            {
              "internalType": "bool",
              "name": "isHighValue",
              "type": "bool"
            },
            {
              "internalType": "bool",
              "name": "isEscrow",
              "type": "bool"
            },
            {
              "internalType": "bool",
              "name": "isApproved",
              "type": "bool"
            },
            {
              "internalType": "bool",
              "name": "executed",
              "type": "bool"
            },
            {
              "internalType": "bool",
              "name": "exists",
              "type": "bool"
            },
            {
              "internalType": "uint256",
              "name": "approvalCount",
              "type": "uint256"
            },
            {
              "internalType": "uint256",
              "name": "timestamp",
              "type": "uint256"
            },
            {
              "internalType": "address",
              "name": "submittedBy",
              "type": "address"
            }
          ],
          "internalType": "struct ChainBudget.Transaction",
          "name": "",
          "type": "tuple"
        }
      ],
      "stateMutability": "view",
      "type": "function"
    },
    {
      "inputs": [],
      "name": "getVaultBalance",
      "outputs": [
        {
          "internalType": "uint256",
          "name": "",
          "type": "uint256"
        }
      ],
      "stateMutability": "view",
      "type": "function"
    },
    {
      "inputs": [
        {
          "internalType": "uint256",
          "name": "txId",
          "type": "uint256"
        },
        {
          "internalType": "address",
          "name": "approver",
          "type": "address"
        }
      ],
      "name": "hasApproverVoted",
      "outputs": [
        {
          "internalType": "bool",
          "name": "",
          "type": "bool"
        }
      ],
      "stateMutability": "view",
      "type": "function"
    },
    {
      "inputs": [
        {
          "internalType": "address",
          "name": "",
          "type": "address"
        }
      ],
      "name": "isApprover",
      "outputs": [
        {
          "internalType": "bool",
          "name": "",
          "type": "bool"
        }
      ],
      "stateMutability": "view",
      "type": "function"
    },
    {
      "inputs": [
        {
          "internalType": "uint256",
          "name": "txId",
          "type": "uint256"
        }
      ],
      "name": "isTransactionApproved",
      "outputs": [
        {
          "internalType": "bool",
          "name": "",
          "type": "bool"
        }
      ],
      "stateMutability": "view",
      "type": "function"
    },
    {
      "inputs": [],
      "name": "owner",
      "outputs": [
        {
          "internalType": "address",
          "name": "",
          "type": "address"
        }
      ],
      "stateMutability": "view",
      "type": "function"
    },
    {
      "inputs": [
        {
          "internalType": "bytes32",
          "name": "dataHash",
          "type": "bytes32"
        },
        {
          "internalType": "uint256",
          "name": "amount",
          "type": "uint256"
        },
        {
          "internalType": "address payable",
          "name": "to",
          "type": "address"
        },
        {
          "internalType": "bool",
          "name": "isHighValue",
          "type": "bool"
        },
        {
          "internalType": "bool",
          "name": "isEscrow",
          "type": "bool"
        }
      ],
      "name": "recordTransaction",
      "outputs": [
        {
          "internalType": "uint256",
          "name": "txId",
          "type": "uint256"
        }
      ],
      "stateMutability": "nonpayable",
      "type": "function"
    },
    {
      "inputs": [
        {
          "internalType": "uint256",
          "name": "txId",
          "type": "uint256"
        }
      ],
      "name": "releaseEscrow",
      "outputs": [],
      "stateMutability": "nonpayable",
      "type": "function"
    },
    {
      "inputs": [
        {
          "internalType": "address",
          "name": "approver",
          "type": "address"
        }
      ],
      "name": "removeApprover",
      "outputs": [],
      "stateMutability": "nonpayable",
      "type": "function"
    },
    {
      "inputs": [],
      "name": "requiredApprovals",
      "outputs": [
        {
          "internalType": "uint256",
          "name": "",
          "type": "uint256"
        }
      ],
      "stateMutability": "view",
      "type": "function"
    },
    {
      "inputs": [
        {
          "internalType": "uint256",
          "name": "txId",
          "type": "uint256"
        }
      ],
      "name": "setPayeeApprovalByOwner",
      "outputs": [],
      "stateMutability": "nonpayable",
      "type": "function"
    },
    {
      "inputs": [
        {
          "internalType": "uint256",
          "name": "_required",
          "type": "uint256"
        }
      ],
      "name": "setRequiredApprovals",
      "outputs": [],
      "stateMutability": "nonpayable",
      "type": "function"
    },
    {
      "inputs": [
        {
          "internalType": "uint256",
          "name": "txId",
          "type": "uint256"
        }
      ],
      "name": "submitApproval",
      "outputs": [],
      "stateMutability": "nonpayable",
      "type": "function"
    },
    {
      "inputs": [],
      "name": "txCounter",
      "outputs": [
        {
          "internalType": "uint256",
          "name": "",
          "type": "uint256"
        }
      ],
      "stateMutability": "view",
      "type": "function"
    },
    {
      "stateMutability": "payable",
      "type": "receive"
    }
  ],
  "bytecode": "0x6080604052600260015534801562000015575f80fd5b50604051620020ed380380620020ed8339810160408190526200003891620002db565b5f8111620000a15760405162461bcd60e51b815260206004820152602b60248201527f436861696e4275646765743a20726571756972656420617070726f76616c732060448201526a06d757374206265203e20360ac1b60648201526084015b60405180910390fd5b8082511015620000fe5760405162461bcd60e51b815260206004820152602160248201527f436861696e4275646765743a206e6f7420656e6f75676820617070726f7665726044820152607360f81b606482015260840162000098565b5f80546001600160a01b0319163317815560018290555b825181101562000155576200014c838281518110620001385762000138620003b0565b60200260200101516200015e60201b60201c565b60010162000115565b505050620003c4565b6001600160a01b038116620001b65760405162461bcd60e51b815260206004820152601960248201527f436861696e4275646765743a207a65726f206164647265737300000000000000604482015260640162000098565b6001600160a01b0381165f9081526006602052604090205460ff1615620002205760405162461bcd60e51b815260206004820181905260248201527f436861696e4275646765743a20616c726561647920616e20617070726f766572604482015260640162000098565b6001600160a01b0381165f81815260066020526040808220805460ff1916600190811790915560078054918201815583527fa66cc928b5edb82af9bd49922954155ab7b0942694bea4ce44661d9a8736c6880180546001600160a01b03191684179055517f835bddf1ceee4956e4329af9edf018523c1191238187a597453f6020bcadb0429190a250565b634e487b7160e01b5f52604160045260245ffd5b80516001600160a01b0381168114620002d6575f80fd5b919050565b5f8060408385031215620002ed575f80fd5b82516001600160401b038082111562000304575f80fd5b818501915085601f83011262000318575f80fd5b81516020828211156200032f576200032f620002ab565b8160051b604051601f19603f83011681018181108682111715620003575762000357620002ab565b60405292835281830193508481018201928984111562000375575f80fd5b948201945b838610156200039e576200038e86620002bf565b855294820194938201936200037a565b97909101519698969750505050505050565b634e487b7160e01b5f52603260045260245ffd5b611d1b80620003d25f395ff3fe60806040526004361061011e575f3560e01c80638da5cb5b1161009d578063c353f15e11610062578063c353f15e146103ca578063d3650fb8146103e9578063ed12e8ef14610408578063ed6531641461041a578063ee22610b14610439575f80fd5b80638da5cb5b1461032257806399c1aadc14610358578063b646c1941461036d578063b88478a41461038c578063ba7e7cab146103ab575f80fd5b80636cf4c88f116100e35780636cf4c88f146102745780636d218e481461029357806374f079b8146102c157806376bc46ac146102e457806385932a4b14610303575f80fd5b8063012f52ee1461015e578063222a242e146101d757806333ea3dc8146101f85780633abb2e4d146102245780636cb3e8ef14610253575f80fd5b3661015a5760405134815233907f4ff5a31295b3d784c7d51c3dd0425de7a6fdb551124f4d4b729fbb007bb007949060200160405180910390a2005b5f80fd5b348015610169575f80fd5b506101a86101783660046119c7565b60046020525f908152604090205460ff808216916101008104821691620100008204811691630100000090041684565b604080519415158552921515602085015290151591830191909152151560608201526080015b60405180910390f35b3480156101e2575f80fd5b506101f66101f13660046119c7565b610458565b005b348015610203575f80fd5b506102176102123660046119c7565b610570565b6040516101ce91906119de565b34801561022f575f80fd5b5061024361023e3660046119c7565b6106d3565b60405190151581526020016101ce565b34801561025e575f80fd5b5061026761072d565b6040516101ce9190611aa7565b34801561027f575f80fd5b506101f661028e366004611b07565b61078d565b34801561029e575f80fd5b506102436102ad366004611b07565b60066020525f908152604090205460ff1681565b3480156102cc575f80fd5b506102d660025481565b6040519081526020016101ce565b3480156102ef575f80fd5b506102d66102fe366004611b3d565b610968565b34801561030e575f80fd5b5061024361031d366004611b92565b610bd7565b34801561032d575f80fd5b505f54610340906001600160a01b031681565b6040516001600160a01b0390911681526020016101ce565b348015610363575f80fd5b506102d660015481565b348015610378575f80fd5b506101f6610387366004611b07565b610c03565b348015610397575f80fd5b506101f66103a63660046119c7565b610c38565b3480156103b6575f80fd5b506102d66103c53660046119c7565b610f0a565b3480156103d5575f80fd5b506101f66103e43660046119c7565b610f59565b3480156103f4575f80fd5b506103406104033660046119c7565b6111f0565b348015610413575f80fd5b50476102d6565b348015610425575f80fd5b506101f66104343660046119c7565b611218565b348015610444575f80fd5b506101f66104533660046119c7565b6115c6565b5f546001600160a01b0316331461048a5760405162461bcd60e51b815260040161048190611bc0565b60405180910390fd5b5f81116104d95760405162461bcd60e51b815260206004820152601860248201527f436861696e4275646765743a206d757374206265203e203000000000000000006044820152606401610481565b6007548111156105355760405162461bcd60e51b815260206004820152602160248201527f436861696e4275646765743a206e6f7420656e6f75676820617070726f7665726044820152607360f81b6064820152608401610481565b60018190556040518181527fdb445dd03a560dac1b5553e3d3a8d6396138df6ab80174d52bfb898a57f429369060200160405180910390a150565b60408051610180810182525f80825260208201819052918101829052606081018290526080810182905260a0810182905260c0810182905260e081018290526101008101829052610120810182905261014081018290526101608101919091525f82815260036020819052604090912001548290600160c01b900460ff1661060a5760405162461bcd60e51b815260040161048190611bf5565b50505f9081526003602081815260409283902083516101808101855281548152600182015492810192909252600281015493820193909352908201546001600160a01b03808216606084015260ff600160a01b8304811615156080850152600160a81b83048116151560a0850152600160b01b83048116151560c0850152600160b81b83048116151560e0850152600160c01b90920490911615156101008301526004830154610120830152600583015461014083015260069092015490911661016082015290565b5f818152600360208190526040822001548290600160c01b900460ff1661070c5760405162461bcd60e51b815260040161048190611bf5565b50505f9081526003602081905260409091200154600160b01b900460ff1690565b6060600780548060200260200160405190810160405280929190818152602001828054801561078357602002820191905f5260205f20905b81546001600160a01b03168152600190910190602001808311610765575b5050505050905090565b5f546001600160a01b031633146107b65760405162461bcd60e51b815260040161048190611bc0565b6001600160a01b0381165f9081526006602052604090205460ff1661081d5760405162461bcd60e51b815260206004820152601c60248201527f436861696e4275646765743a206e6f7420616e20617070726f766572000000006044820152606401610481565b6001600160a01b0381165f908152600660205260408120805460ff191690555b60075481101561093157816001600160a01b03166007828154811061086457610864611c3c565b5f918252602090912001546001600160a01b031603610929576007805461088d90600190611c64565b8154811061089d5761089d611c3c565b5f91825260209091200154600780546001600160a01b0390921691839081106108c8576108c8611c3c565b905f5260205f20015f6101000a8154816001600160a01b0302191690836001600160a01b03160217905550600780548061090457610904611c77565b5f8281526020902081015f1990810180546001600160a01b0319169055019055610931565b60010161083d565b506040516001600160a01b038216907fc6e35658c76ecdde40a54f31a91fb7c8615e9893cc0885584b27bb3433270d46905f90a250565b5f80546001600160a01b031633146109925760405162461bcd60e51b815260040161048190611bc0565b60028054905f6109a183611c8b565b91905055506002549050604051806101800160405280828152602001878152602001868152602001856001600160a01b03168152602001841515815260200183151581526020018415151581526020015f151581526020016001151581526020015f8152602001428152602001336001600160a01b031681525060035f8381526020019081526020015f205f820151815f015560208201518160010155604082015181600201556060820151816003015f6101000a8154816001600160a01b0302191690836001600160a01b0316021790555060808201518160030160146101000a81548160ff02191690831515021790555060a08201518160030160156101000a81548160ff02191690831515021790555060c08201518160030160166101000a81548160ff02191690831515021790555060e08201518160030160176101000a81548160ff0219169083151502179055506101008201518160030160186101000a81548160ff02191690831515021790555061012082015181600401556101408201518160050155610160820151816006015f6101000a8154816001600160a01b0302191690836001600160a01b03160217905550905050807f101b9aa1e941abd38cac2b8700af1ef1bd3087ae8586cb5d23bf81f48dc2e09c878787878733604051610bc69695949392919095865260208601949094526001600160a01b0392831660408601529015156060850152151560808401521660a082015260c00190565b60405180910390a295945050505050565b5f8281526005602090815260408083206001600160a01b038516845290915290205460ff165b92915050565b5f546001600160a01b03163314610c2c5760405162461bcd60e51b815260040161048190611bc0565b610c358161187e565b50565b335f9081526006602052604090205460ff16610ca55760405162461bcd60e51b815260206004820152602660248201527f436861696e4275646765743a2063616c6c6572206973206e6f7420616e206170604482015265383937bb32b960d11b6064820152608401610481565b5f81815260036020819052604090912001548190600160c01b900460ff16610cdf5760405162461bcd60e51b815260040161048190611bf5565b5f82815260036020819052604090912090810154600160a01b900460ff16610d615760405162461bcd60e51b815260206004820152602f60248201527f436861696e4275646765743a207472616e73616374696f6e20646f6573206e6f60448201526e1d081b99595908185c1c1c9bdd985b608a1b6064820152608401610481565b6003810154600160b01b900460ff1615610dcf5760405162461bcd60e51b815260206004820152602960248201527f436861696e4275646765743a207472616e73616374696f6e20616c726561647960448201526808185c1c1c9bdd995960ba1b6064820152608401610481565b5f83815260056020908152604080832033845290915290205460ff1615610e385760405162461bcd60e51b815260206004820152601d60248201527f436861696e4275646765743a20616c726561647920617070726f7665640000006044820152606401610481565b5f8381526005602090815260408083203384529091528120805460ff1916600117905560048201805491610e6b83611c8b565b9190505550336001600160a01b0316837fbd50c5176b65c720cf41e0815e66b4457487a5c3374f245761979206a471ac878360040154604051610eb091815260200190565b60405180910390a3600154816004015410610f055760038101805460ff60b01b1916600160b01b17905560405183907fbd3984aa34b5ed86a6d4f470c1c4b79e124b8801762705aa1887495eb991b130905f90a25b505050565b5f818152600360208190526040822001548290600160c01b900460ff16610f435760405162461bcd60e51b815260040161048190611bf5565b50505f9081526003602052604090206004015490565b5f546001600160a01b03163314610f825760405162461bcd60e51b815260040161048190611bc0565b5f81815260036020819052604090912001548190600160c01b900460ff16610fbc5760405162461bcd60e51b815260040161048190611bf5565b5f82815260046020908152604080832060039283905292200154600160a81b900460ff1661101c5760405162461bcd60e51b815260206004820152600d60248201526c4e6f7420616e20657363726f7760981b6044820152606401610481565b80546301000000900460ff16156110685760405162461bcd60e51b815260206004820152601060248201526f105b1c9958591e481c995b19585cd95960821b6044820152606401610481565b805462ff0000191662010000178155604080513381525f602082015284917f7a73b8379fe0ca5e46882369229f18c18d157ba180a14e859a8a36a4f1e70d11910160405180910390a28054610100900460ff1680156110ce5750805462010000900460ff165b15610f0557805463ff000000191663010000001781555f8381526003602081905260408083209182015460029092015490516001600160a01b03909216918381818185875af1925050503d805f8114611142576040519150601f19603f3d011682016040523d82523d5f602084013e611147565b606091505b50509050806111905760405162461bcd60e51b81526020600482015260156024820152741350551250c81d1c985b9cd9995c8819985a5b1959605a1b6044820152606401610481565b5f848152600360208181526040928390209182015460029092015492519283526001600160a01b039091169186917f6244ed823ca6be0f11bc890c3fafcf3c29cb23420c14243642e930b5e07e6d0a91015b60405180910390a350505050565b600781815481106111ff575f80fd5b5f918252602090912001546001600160a01b0316905081565b5f81815260036020819052604090912001548190600160c01b900460ff166112525760405162461bcd60e51b815260040161048190611bf5565b5f828152600360208181526040808420600490925290922090820154600160a81b900460ff166112d35760405162461bcd60e51b815260206004820152602660248201527f436861696e4275646765743a206e6f7420616e20657363726f77207472616e7360448201526530b1ba34b7b760d11b6064820152608401610481565b805460ff1661132f5760405162461bcd60e51b815260206004820152602260248201527f436861696e4275646765743a20657363726f77206e6f742066756e6465642079604482015261195d60f21b6064820152608401610481565b80546301000000900460ff16156113945760405162461bcd60e51b8152602060048201526024808201527f436861696e4275646765743a20657363726f7720616c72656164792072656c65604482015263185cd95960e21b6064820152608401610481565b60038201546001600160a01b031633036113f757805462ff0000191662010000178155604080513381525f602082015285917f7a73b8379fe0ca5e46882369229f18c18d157ba180a14e859a8a36a4f1e70d1191015b60405180910390a26114ca565b5f546001600160a01b031633148061141d5750335f9081526006602052604090205460ff165b1561146757805461ff001916610100178155604080513381526001602082015285917f7a73b8379fe0ca5e46882369229f18c18d157ba180a14e859a8a36a4f1e70d1191016113ea565b60405162461bcd60e51b815260206004820152603260248201527f436861696e4275646765743a206e6f7420617574686f72697a656420746f2072604482015271656c65617365207468697320657363726f7760701b6064820152608401610481565b8054610100900460ff1680156114e75750805462010000900460ff165b156115c057805463ff00000019166301000000178155600382015460028301546040515f926001600160a01b031691908381818185875af1925050503d805f811461154d576040519150601f19603f3d011682016040523d82523d5f602084013e611552565b606091505b50509050806115735760405162461bcd60e51b815260040161048190611ca3565b600383015460028401546040519081526001600160a01b039091169086907f6244ed823ca6be0f11bc890c3fafcf3c29cb23420c14243642e930b5e07e6d0a9060200160405180910390a3505b50505050565b5f81815260036020819052604090912001548190600160c01b900460ff166116005760405162461bcd60e51b815260040161048190611bf5565b5f82815260036020819052604090912090810154600160b01b900460ff1661167c5760405162461bcd60e51b815260206004820152602960248201527f436861696e4275646765743a207472616e73616374696f6e206e6f74206170706044820152681c9bdd9959081e595d60ba1b6064820152608401610481565b6003810154600160b81b900460ff16156116d85760405162461bcd60e51b815260206004820152601d60248201527f436861696e4275646765743a20616c72656164792065786563757465640000006044820152606401610481565b806002015447101561173c5760405162461bcd60e51b815260206004820152602760248201527f436861696e4275646765743a20696e73756666696369656e74207661756c742060448201526662616c616e636560c81b6064820152608401610481565b60038101805460ff60b81b1916600160b81b1790819055600160a81b900460ff16156117c0575f8381526004602052604090819020805460ff191660011790556002820154905184917f911052e1be46242b46bf3c2762227ff37c000e5fe38727638096f3a17fbfe170916117b391815260200190565b60405180910390a2505050565b600381015460028201546040515f926001600160a01b031691908381818185875af1925050503d805f8114611810576040519150601f19603f3d011682016040523d82523d5f602084013e611815565b606091505b50509050806118365760405162461bcd60e51b815260040161048190611ca3565b600382015460028301546040519081526001600160a01b039091169085907fda19024f6708ce28e75d9c0ec389fb05a8e5cc9dfe520f61239c10d51a11e59c906020016111e2565b6001600160a01b0381166118d45760405162461bcd60e51b815260206004820152601960248201527f436861696e4275646765743a207a65726f2061646472657373000000000000006044820152606401610481565b6001600160a01b0381165f9081526006602052604090205460ff161561193c5760405162461bcd60e51b815260206004820181905260248201527f436861696e4275646765743a20616c726561647920616e20617070726f7665726044820152606401610481565b6001600160a01b0381165f81815260066020526040808220805460ff1916600190811790915560078054918201815583527fa66cc928b5edb82af9bd49922954155ab7b0942694bea4ce44661d9a8736c6880180546001600160a01b03191684179055517f835bddf1ceee4956e4329af9edf018523c1191238187a597453f6020bcadb0429190a250565b5f602082840312156119d7575f80fd5b5035919050565b5f610180820190508251825260208301516020830152604083015160408301526060830151611a1860608401826001600160a01b03169052565b506080830151611a2c608084018215159052565b5060a0830151611a4060a084018215159052565b5060c0830151611a5460c084018215159052565b5060e0830151611a6860e084018215159052565b506101008381015115159083015261012080840151908301526101408084015190830152610160928301516001600160a01b0316929091019190915290565b602080825282518282018190525f9190848201906040850190845b81811015611ae75783516001600160a01b031683529284019291840191600101611ac2565b50909695505050505050565b6001600160a01b0381168114610c35575f80fd5b5f60208284031215611b17575f80fd5b8135611b2281611af3565b9392505050565b80358015158114611b38575f80fd5b919050565b5f805f805f60a08688031215611b51575f80fd5b85359450602086013593506040860135611b6a81611af3565b9250611b7860608701611b29565b9150611b8660808701611b29565b90509295509295909350565b5f8060408385031215611ba3575f80fd5b823591506020830135611bb581611af3565b809150509250929050565b6020808252818101527f436861696e4275646765743a2063616c6c6572206973206e6f74206f776e6572604082015260600190565b60208082526027908201527f436861696e4275646765743a207472616e73616374696f6e20646f6573206e6f6040820152661d08195e1a5cdd60ca1b606082015260800190565b634e487b7160e01b5f52603260045260245ffd5b634e487b7160e01b5f52601160045260245ffd5b81810381811115610bfd57610bfd611c50565b634e487b7160e01b5f52603160045260245ffd5b5f60018201611c9c57611c9c611c50565b5060010190565b60208082526022908201527f436861696e4275646765743a204d41544943207472616e73666572206661696c604082015261195960f21b60608201526080019056fea2646970667358221220d5bdd6df9d0d556350a7bcf951cad9445e893985032f5c8e9204f2853be5065564736f6c63430008180033",
  "linkReferences": {},
  "deployedLinkReferences": {}
}