{
  "_format": "hh-sol-artifact-1",
  "contractName": "ChainBudget",
  "sourceName": "contracts/ChainBudget.sol",
  "abi": [
    {
      "inputs": [
        {
          "internalType": "address[]",
          "name": "_initialApprovers",
          "type": "address[]"
        },
        {
          "internalType": "uint256",
          "name": "_requiredApprovals",
          "type": "uint256"
        }
      ],
      "stateMutability": "nonpayable",
      "type": "constructor"
    },
    {
      "anonymous": false,
      "inputs": [
        {
          "indexed": true,
          "internalType": "uint256",
          "name": "txId",
          "type": "uint256"
        },
        {
          "indexed": true,
          "internalType": "address",
          "name": "approver",
          "type": "address"
        },
        {
          "indexed": false,
          "internalType": "uint256",
          "name": "approvalCount",
          "type": "uint256"
        }
      ],
      "name": "ApprovalSubmitted",
      "type": "event"
    },
    {
      "anonymous": false,
      "inputs": [
        {
          "indexed": true,
          "internalType": "address",
          "name": "approver",
          "type": "address"
        }
      ],
      "name": "ApproverAdded",
      "type": "event"
    },
    {
      "anonymous": false,
      "inputs": [
        {
          "indexed": true,
          "internalType": "address",
          "name": "approver",
          "type": "address"
        }
      ],
      "name": "ApproverRemoved",
      "type": "event"
    },
    {
      "anonymous": false,
      "inputs": [
        {
          "indexed": false,
          "internalType": "uint256",
          "name": "newRequired",
          "type": "uint256"
        }
      ],
      "name": "RequiredApprovalsUpdated",
      "type": "event"
    },
    {
      "anonymous": false,
      "inputs": [
        {
          "indexed": true,
          "internalType": "uint256",
          "name": "txId",
          "type": "uint256"
        }
      ],
      "name": "TransactionApproved",
      "type": "event"
    },
    {
      "anonymous": false,
      "inputs": [
        {
          "indexed": true,
          "internalType": "uint256",
          "name": "txId",
          "type": "uint256"
        },
        {
          "indexed": false,
          "internalType": "bytes32",
          "name": "dataHash",
          "type": "bytes32"
        },
        {
          "indexed": false,
          "internalType": "uint256",
          "name": "amount",
          "type": "uint256"
        },
        {
          "indexed": false,
          "internalType": "bool",
          "name": "isHighValue",
          "type": "bool"
        },
        {
          "indexed": false,
          "internalType": "address",
          "name": "submittedBy",
          "type": "address"
        }
      ],
      "name": "TransactionRecorded",
      "type": "event"
    },
    {
      "inputs": [
        {
          "internalType": "address",
          "name": "approver",
          "type": "address"
        }
      ],
      "name": "addApprover",
      "outputs": [],
      "stateMutability": "nonpayable",
      "type": "function"
    },
    {
      "inputs": [
        {
          "internalType": "uint256",
          "name": "",
          "type": "uint256"
        }
      ],
      "name": "approvers",
      "outputs": [
        {
          "internalType": "address",
          "name": "",
          "type": "address"
        }
      ],
      "stateMutability": "view",
      "type": "function"
    },
    {
      "inputs": [
        {
          "internalType": "uint256",
          "name": "txId",
          "type": "uint256"
        }
      ],
      "name": "getApprovalCount",
      "outputs": [
        {
          "internalType": "uint256",
          "name": "",
          "type": "uint256"
        }
      ],
      "stateMutability": "view",
      "type": "function"
    },
    {
      "inputs": [],
      "name": "getApprovers",
      "outputs": [
        {
          "internalType": "address[]",
          "name": "",
          "type": "address[]"
        }
      ],
      "stateMutability": "view",
      "type": "function"
    },
    {
      "inputs": [
        {
          "internalType": "uint256",
          "name": "txId",
          "type": "uint256"
        }
      ],
      "name": "getTransaction",
      "outputs": [
        {
          "components": [
            {
              "internalType": "uint256",
              "name": "id",
              "type": "uint256"
            },
            {
              "internalType": "bytes32",
              "name": "dataHash",
              "type": "bytes32"
            },
            {
              "internalType": "uint256",
              "name": "amount",
              "type": "uint256"
            },
            {
              "internalType": "bool",
              "name": "isHighValue",
              "type": "bool"
            },
            {
              "internalType": "bool",
              "name": "isApproved",
              "type": "bool"
            },
            {
              "internalType": "bool",
              "name": "exists",
              "type": "bool"
            },
            {
              "internalType": "uint256",
              "name": "approvalCount",
              "type": "uint256"
            },
            {
              "internalType": "uint256",
              "name": "timestamp",
              "type": "uint256"
            },
            {
              "internalType": "address",
              "name": "submittedBy",
              "type": "address"
            }
          ],
          "internalType": "struct ChainBudget.Transaction",
          "name": "",
          "type": "tuple"
        }
      ],
      "stateMutability": "view",
      "type": "function"
    },
    {
      "inputs": [
        {
          "internalType": "uint256",
          "name": "txId",
          "type": "uint256"
        },
        {
          "internalType": "address",
          "name": "approver",
          "type": "address"
        }
      ],
      "name": "hasApproverVoted",
      "outputs": [
        {
          "internalType": "bool",
          "name": "",
          "type": "bool"
        }
      ],
      "stateMutability": "view",
      "type": "function"
    },
    {
      "inputs": [
        {
          "internalType": "address",
          "name": "",
          "type": "address"
        }
      ],
      "name": "isApprover",
      "outputs": [
        {
          "internalType": "bool",
          "name": "",
          "type": "bool"
        }
      ],
      "stateMutability": "view",
      "type": "function"
    },
    {
      "inputs": [
        {
          "internalType": "uint256",
          "name": "txId",
          "type": "uint256"
        }
      ],
      "name": "isTransactionApproved",
      "outputs": [
        {
          "internalType": "bool",
          "name": "",
          "type": "bool"
        }
      ],
      "stateMutability": "view",
      "type": "function"
    },
    {
      "inputs": [],
      "name": "owner",
      "outputs": [
        {
          "internalType": "address",
          "name": "",
          "type": "address"
        }
      ],
      "stateMutability": "view",
      "type": "function"
    },
    {
      "inputs": [
        {
          "internalType": "bytes32",
          "name": "dataHash",
          "type": "bytes32"
        },
        {
          "internalType": "uint256",
          "name": "amount",
          "type": "uint256"
        },
        {
          "internalType": "bool",
          "name": "isHighValue",
          "type": "bool"
        }
      ],
      "name": "recordTransaction",
      "outputs": [
        {
          "internalType": "uint256",
          "name": "txId",
          "type": "uint256"
        }
      ],
      "stateMutability": "nonpayable",
      "type": "function"
    },
    {
      "inputs": [
        {
          "internalType": "address",
          "name": "approver",
          "type": "address"
        }
      ],
      "name": "removeApprover",
      "outputs": [],
      "stateMutability": "nonpayable",
      "type": "function"
    },
    {
      "inputs": [],
      "name": "requiredApprovals",
      "outputs": [
        {
          "internalType": "uint256",
          "name": "",
          "type": "uint256"
        }
      ],
      "stateMutability": "view",
      "type": "function"
    },
    {
      "inputs": [
        {
          "internalType": "uint256",
          "name": "_required",
          "type": "uint256"
        }
      ],
      "name": "setRequiredApprovals",
      "outputs": [],
      "stateMutability": "nonpayable",
      "type": "function"
    },
    {
      "inputs": [
        {
          "internalType": "uint256",
          "name": "txId",
          "type": "uint256"
        }
      ],
      "name": "submitApproval",
      "outputs": [],
      "stateMutability": "nonpayable",
      "type": "function"
    },
    {
      "inputs": [],
      "name": "txCounter",
      "outputs": [
        {
          "internalType": "uint256",
          "name": "",
          "type": "uint256"
        }
      ],
      "stateMutability": "view",
      "type": "function"
    }
  ],
  "bytecode": "0x608060405260026001553480156200001657600080fd5b50604051620014ae380380620014ae8339810160408190526200003991620002fd565b60008111620000a35760405162461bcd60e51b815260206004820152602b60248201527f436861696e4275646765743a20726571756972656420617070726f76616c732060448201526a06d757374206265203e20360ac1b60648201526084015b60405180910390fd5b80825110156200010e5760405162461bcd60e51b815260206004820152602f60248201527f436861696e4275646765743a206e6f7420656e6f75676820617070726f76657260448201526e1cc8199bdc881d1a1c995cda1bdb19608a1b60648201526084016200009a565b600080546001600160a01b0319163317815560018290555b825181101562000172576200015d838281518110620001495762000149620003d7565b60200260200101516200017b60201b60201c565b806200016981620003ed565b91505062000126565b50505062000415565b6001600160a01b038116620001d35760405162461bcd60e51b815260206004820152601960248201527f436861696e4275646765743a207a65726f20616464726573730000000000000060448201526064016200009a565b6001600160a01b03811660009081526005602052604090205460ff16156200023e5760405162461bcd60e51b815260206004820181905260248201527f436861696e4275646765743a20616c726561647920616e20617070726f76657260448201526064016200009a565b6001600160a01b038116600081815260056020526040808220805460ff1916600190811790915560068054918201815583527ff652222313e28459528d920b65115c16c04f3efc82aaedc97be59f3f377c0d3f0180546001600160a01b03191684179055517f835bddf1ceee4956e4329af9edf018523c1191238187a597453f6020bcadb0429190a250565b634e487b7160e01b600052604160045260246000fd5b80516001600160a01b0381168114620002f857600080fd5b919050565b600080604083850312156200031157600080fd5b82516001600160401b03808211156200032957600080fd5b818501915085601f8301126200033e57600080fd5b8151602082821115620003555762000355620002ca565b8160051b604051601f19603f830116810181811086821117156200037d576200037d620002ca565b6040529283528183019350848101820192898411156200039c57600080fd5b948201945b83861015620003c557620003b586620002e0565b85529482019493820193620003a1565b97909101519698969750505050505050565b634e487b7160e01b600052603260045260246000fd5b6000600182016200040e57634e487b7160e01b600052601160045260246000fd5b5060010190565b61108980620004256000396000f3fe608060405234801561001057600080fd5b50600436106100f55760003560e01c806374f079b811610097578063b646c19411610066578063b646c19414610217578063b88478a41461022a578063ba7e7cab1461023d578063d3650fb81461025057600080fd5b806374f079b8146101c757806385932a4b146101d05780638da5cb5b146101e357806399c1aadc1461020e57600080fd5b80635964448d116100d35780635964448d1461015b5780636cb3e8ef1461017c5780636cf4c88f146101915780636d218e48146101a457600080fd5b8063222a242e146100fa57806333ea3dc81461010f5780633abb2e4d14610138575b600080fd5b61010d610108366004610dd7565b610263565b005b61012261011d366004610dd7565b61038f565b60405161012f9190610df0565b60405180910390f35b61014b610146366004610dd7565b6104a6565b604051901515815260200161012f565b61016e610169366004610e74565b6104ff565b60405190815260200161012f565b610184610695565b60405161012f9190610eb2565b61010d61019f366004610f1b565b6106f7565b61014b6101b2366004610f1b565b60056020526000908152604090205460ff1681565b61016e60025481565b61014b6101de366004610f3d565b6108e7565b6000546101f6906001600160a01b031681565b6040516001600160a01b03909116815260200161012f565b61016e60015481565b61010d610225366004610f1b565b610914565b61010d610238366004610dd7565b61094a565b61016e61024b366004610dd7565b610c12565b6101f661025e366004610dd7565b610c62565b6000546001600160a01b031633146102965760405162461bcd60e51b815260040161028d90610f69565b60405180910390fd5b600081116102e65760405162461bcd60e51b815260206004820152601860248201527f436861696e4275646765743a206d757374206265203e20300000000000000000604482015260640161028d565b6006548111156103545760405162461bcd60e51b815260206004820152603360248201527f436861696e4275646765743a206e6f7420656e6f75676820617070726f7665726044820152721cc8199bdc881b995dc81d1a1c995cda1bdb19606a1b606482015260840161028d565b60018190556040518181527fdb445dd03a560dac1b5553e3d3a8d6396138df6ab80174d52bfb898a57f429369060200160405180910390a150565b6040805161012081018252600080825260208201819052918101829052606081018290526080810182905260a0810182905260c0810182905260e0810182905261010081019190915260008281526003602081905260409091200154829062010000900460ff166104125760405162461bcd60e51b815260040161028d90610f9e565b5050600090815260036020818152604092839020835161012081018552815481526001820154928101929092526002810154938201939093529082015460ff808216151560608401526101008083048216151560808501526201000090920416151560a0830152600483015460c0830152600583015460e08301526006909201546001600160a01b03169181019190915290565b600081815260036020819052604082200154829062010000900460ff166104df5760405162461bcd60e51b815260040161028d90610f9e565b505060009081526003602081905260409091200154610100900460ff1690565b600080546001600160a01b0316331461052a5760405162461bcd60e51b815260040161028d90610f69565b6002805490600061053a83610ffb565b90915550506002805460408051610120810182528281526020808201898152828401898152881580156060860190815260808601918252600160a08701818152600060c089018181524260e08b0190815233610100808d018281528f865260039c8d9052948e90209c518d559951958c019590955596519c8a019c909c5592519688018054945191511515620100000262ff00001992151590970261ff00199815159890981661ffff1990951694909417969096179590951693909317905595516004840155945160058301559351600690910180546001600160a01b03929092166001600160a01b03199092169190911790555190925082917f12851ffc4d19d0179ab4eae0750824e2186a005c3f636b122a6981dc36017dd591610686918891889188919384526020840192909252151560408301526001600160a01b0316606082015260800190565b60405180910390a29392505050565b606060068054806020026020016040519081016040528092919081815260200182805480156106ed57602002820191906000526020600020905b81546001600160a01b031681526001909101906020018083116106cf575b5050505050905090565b6000546001600160a01b031633146107215760405162461bcd60e51b815260040161028d90610f69565b6001600160a01b03811660009081526005602052604090205460ff166107895760405162461bcd60e51b815260206004820152601c60248201527f436861696e4275646765743a206e6f7420616e20617070726f76657200000000604482015260640161028d565b6001600160a01b0381166000908152600560205260408120805460ff191690555b6006548110156108af57816001600160a01b0316600682815481106107d1576107d1611014565b6000918252602090912001546001600160a01b03160361089d57600680546107fb9060019061102a565b8154811061080b5761080b611014565b600091825260209091200154600680546001600160a01b03909216918390811061083757610837611014565b9060005260206000200160006101000a8154816001600160a01b0302191690836001600160a01b0316021790555060068054806108765761087661103d565b600082815260209020810160001990810180546001600160a01b03191690550190556108af565b806108a781610ffb565b9150506107aa565b506040516001600160a01b038216907fc6e35658c76ecdde40a54f31a91fb7c8615e9893cc0885584b27bb3433270d4690600090a250565b60008281526004602090815260408083206001600160a01b038516845290915290205460ff165b92915050565b6000546001600160a01b0316331461093e5760405162461bcd60e51b815260040161028d90610f69565b61094781610c8c565b50565b3360009081526005602052604090205460ff166109b85760405162461bcd60e51b815260206004820152602660248201527f436861696e4275646765743a2063616c6c6572206973206e6f7420616e206170604482015265383937bb32b960d11b606482015260840161028d565b60008181526003602081905260409091200154819062010000900460ff166109f25760405162461bcd60e51b815260040161028d90610f9e565b60008281526003602081905260409091209081015460ff16610a6e5760405162461bcd60e51b815260206004820152602f60248201527f436861696e4275646765743a207472616e73616374696f6e20646f6573206e6f60448201526e1d081b99595908185c1c1c9bdd985b608a1b606482015260840161028d565b6003810154610100900460ff1615610ada5760405162461bcd60e51b815260206004820152602960248201527f436861696e4275646765743a207472616e73616374696f6e20616c726561647960448201526808185c1c1c9bdd995960ba1b606482015260840161028d565b600083815260046020908152604080832033845290915290205460ff1615610b445760405162461bcd60e51b815260206004820152601d60248201527f436861696e4275646765743a20616c726561647920617070726f766564000000604482015260640161028d565b60008381526004602081815260408084203385529091528220805460ff191660011790558201805491610b7683610ffb565b9190505550336001600160a01b0316837fbd50c5176b65c720cf41e0815e66b4457487a5c3374f245761979206a471ac878360040154604051610bbb91815260200190565b60405180910390a3600154816004015410610c0d5760038101805461ff00191661010017905560405183907fbd3984aa34b5ed86a6d4f470c1c4b79e124b8801762705aa1887495eb991b13090600090a25b505050565b600081815260036020819052604082200154829062010000900460ff16610c4b5760405162461bcd60e51b815260040161028d90610f9e565b505060009081526003602052604090206004015490565b60068181548110610c7257600080fd5b6000918252602090912001546001600160a01b0316905081565b6001600160a01b038116610ce25760405162461bcd60e51b815260206004820152601960248201527f436861696e4275646765743a207a65726f206164647265737300000000000000604482015260640161028d565b6001600160a01b03811660009081526005602052604090205460ff1615610d4b5760405162461bcd60e51b815260206004820181905260248201527f436861696e4275646765743a20616c726561647920616e20617070726f766572604482015260640161028d565b6001600160a01b038116600081815260056020526040808220805460ff1916600190811790915560068054918201815583527ff652222313e28459528d920b65115c16c04f3efc82aaedc97be59f3f377c0d3f0180546001600160a01b03191684179055517f835bddf1ceee4956e4329af9edf018523c1191238187a597453f6020bcadb0429190a250565b600060208284031215610de957600080fd5b5035919050565b60006101208201905082518252602083015160208301526040830151604083015260608301511515606083015260808301511515608083015260a0830151610e3c60a084018215159052565b5060c083015160c083015260e083015160e083015261010080840151610e6c828501826001600160a01b03169052565b505092915050565b600080600060608486031215610e8957600080fd5b833592506020840135915060408401358015158114610ea757600080fd5b809150509250925092565b6020808252825182820181905260009190848201906040850190845b81811015610ef35783516001600160a01b031683529284019291840191600101610ece565b50909695505050505050565b80356001600160a01b0381168114610f1657600080fd5b919050565b600060208284031215610f2d57600080fd5b610f3682610eff565b9392505050565b60008060408385031215610f5057600080fd5b82359150610f6060208401610eff565b90509250929050565b6020808252818101527f436861696e4275646765743a2063616c6c6572206973206e6f74206f776e6572604082015260600190565b60208082526027908201527f436861696e4275646765743a207472616e73616374696f6e20646f6573206e6f6040820152661d08195e1a5cdd60ca1b606082015260800190565b634e487b7160e01b600052601160045260246000fd5b60006001820161100d5761100d610fe5565b5060010190565b634e487b7160e01b600052603260045260246000fd5b8181038181111561090e5761090e610fe5565b634e487b7160e01b600052603160045260246000fdfea2646970667358221220df79fac60122ef40210ab3011a547426a559a1c96133915410475e333e00230264736f6c63430008140033",
  "linkReferences": {},
  "deployedLinkReferences": {}
}